{
  "contractName": "ToDoList",
  "abi": [
    {
      "inputs": [],
      "payable": false,
      "stateMutability": "nonpayable",
      "type": "constructor"
    },
    {
      "anonymous": false,
      "inputs": [
        {
          "indexed": false,
          "internalType": "uint256",
          "name": "id",
          "type": "uint256"
        },
        {
          "indexed": false,
          "internalType": "bool",
          "name": "completed",
          "type": "bool"
        }
      ],
      "name": "TaskCompleted",
      "type": "event"
    },
    {
      "anonymous": false,
      "inputs": [
        {
          "indexed": false,
          "internalType": "uint256",
          "name": "id",
          "type": "uint256"
        },
        {
          "indexed": false,
          "internalType": "string",
          "name": "content",
          "type": "string"
        },
        {
          "indexed": false,
          "internalType": "bool",
          "name": "completed",
          "type": "bool"
        }
      ],
      "name": "TaskCreated",
      "type": "event"
    },
    {
      "constant": true,
      "inputs": [
        {
          "internalType": "uint256",
          "name": "",
          "type": "uint256"
        }
      ],
      "name": "tasks",
      "outputs": [
        {
          "internalType": "uint256",
          "name": "id",
          "type": "uint256"
        },
        {
          "internalType": "string",
          "name": "content",
          "type": "string"
        },
        {
          "internalType": "bool",
          "name": "completed",
          "type": "bool"
        }
      ],
      "payable": false,
      "stateMutability": "view",
      "type": "function"
    },
    {
      "constant": false,
      "inputs": [
        {
          "internalType": "string",
          "name": "_content",
          "type": "string"
        }
      ],
      "name": "createTask",
      "outputs": [],
      "payable": false,
      "stateMutability": "nonpayable",
      "type": "function"
    },
    {
      "constant": false,
      "inputs": [
        {
          "internalType": "uint256",
          "name": "_id",
          "type": "uint256"
        }
      ],
      "name": "toggleCompleted",
      "outputs": [],
      "payable": false,
      "stateMutability": "nonpayable",
      "type": "function"
    }
  ],
  "bytecode": "0x60806040526000805534801561001457600080fd5b5061003f6040518060600160405280602381526020016107ea602391396001600160e01b0361004416565b610203565b600080546001908101808355604080516060810182528281526020808201878152828401879052938652848152919094208451815591518051929361009193908501929190910190610168565b5060408201518160020160006101000a81548160ff0219169083151502179055509050507f05d0fb833127fc08168556d0e7ca9554fc3f6bc843b3b7d2bf1c35aea6bab660600054826000604051808481526020018060200183151515158152602001828103825284818151815260200191508051906020019080838360005b83811015610129578181015183820152602001610111565b50505050905090810190601f1680156101565780820380516001836020036101000a031916815260200191505b5094505050505060405180910390a150565b828054600181600116156101000203166002900490600052602060002090601f016020900481019282601f106101a957805160ff19168380011785556101d6565b828001600101855582156101d6579182015b828111156101d65782518255916020019190600101906101bb565b506101e29291506101e6565b5090565b61020091905b808211156101e257600081556001016101ec565b90565b6105d8806102126000396000f3fe608060405234801561001057600080fd5b50600436106100415760003560e01c8063111002aa14610046578063455f5024146100ee5780638d9776721461010b575b600080fd5b6100ec6004803603602081101561005c57600080fd5b81019060208101813564010000000081111561007757600080fd5b82018360208201111561008957600080fd5b803590602001918460018302840111640100000000831117156100ab57600080fd5b91908080601f0160208091040260200160405190810160405280939291908181526020018383808284376000920191909152509295506101b2945050505050565b005b6100ec6004803603602081101561010457600080fd5b50356102d6565b6101286004803603602081101561012157600080fd5b5035610436565b604051808481526020018060200183151515158152602001828103825284818151815260200191508051906020019080838360005b8381101561017557818101518382015260200161015d565b50505050905090810190601f1680156101a25780820380516001836020036101000a031916815260200191505b5094505050505060405180910390f35b60008054600190810180835560408051606081018252828152602080820187815282840187905293865284815291909420845181559151805192936101ff939085019291909101906104e5565b5060408201518160020160006101000a81548160ff0219169083151502179055509050507f05d0fb833127fc08168556d0e7ca9554fc3f6bc843b3b7d2bf1c35aea6bab660600054826000604051808481526020018060200183151515158152602001828103825284818151815260200191508051906020019080838360005b8381101561029757818101518382015260200161027f565b50505050905090810190601f1680156102c45780820380516001836020036101000a031916815260200191505b5094505050505060405180910390a150565b6102de610563565b60008281526001602081815260409283902083516060810185528154815281840180548651600296821615610100026000190190911695909504601f810185900485028601850190965285855290949193858401939092908301828280156103875780601f1061035c57610100808354040283529160200191610387565b820191906000526020600020905b81548152906001019060200180831161036a57829003601f168201915b50505091835250506002919091015460ff161515602091820152604080830180511590526000858152600180845291902083518155838301518051949550859491936103d8938501929101906104e5565b50604091820151600291909101805460ff1916911515919091179055818101518151848152901515602082015281517fe21fa966ca5cd02748c0752352d18c48165e61cb55b4c29cccf924b5a95fcff1929181900390910190a15050565b600160208181526000928352604092839020805481840180548651600296821615610100026000190190911695909504601f810185900485028601850190965285855290949193929091908301828280156104d25780601f106104a7576101008083540402835291602001916104d2565b820191906000526020600020905b8154815290600101906020018083116104b557829003601f168201915b5050506002909301549192505060ff1683565b828054600181600116156101000203166002900490600052602060002090601f016020900481019282601f1061052657805160ff1916838001178555610553565b82800160010185558215610553579182015b82811115610553578251825591602001919060010190610538565b5061055f929150610586565b5090565b604051806060016040528060008152602001606081526020016000151581525090565b6105a091905b8082111561055f576000815560010161058c565b9056fea265627a7a7231582067d0d0f94aae57908289e89d07da72d6353d6282f6fb7584c836c70afff8faf464736f6c634300051000324472696e6b2032206c697474657273206f66207761746572206576657279206461792e",
  "source": "pragma solidity ^0.5.0;\n/**+-VER LOS COMÁNDOS BÁSICOS DE TRUFFLE EN:_\nhttps://www.trufflesuite.com/docs/truffle/reference/truffle-commands .*/\ncontract ToDoList {\n  uint taskCount = 0;\n\n  /**+-Las \"Struct\" de Solidity son como los \"Models\"(La Estructura Modelo de Datos) en los que se basan los \"Documents\" de las Bases de Datos.*/\n  struct Task {\n    uint id;\n    string content;\n    bool completed;\n  }\n/**+-Mapping in Solidity:_ https://www.geeksforgeeks.org/solidity-mappings/ */\n  mapping(uint => Task) public tasks;\n\nevent TaskCreated(\n  uint id,\n  string content,\n  bool completed\n);\n\nevent TaskCompleted(\n  uint id,\n  bool completed\n);\n\nconstructor() public {\n  createTask('Drink 2 litters of water every day.');\n}\n\n  function createTask(string memory _content) public {\n    taskCount ++;\n    tasks[taskCount] = Task(taskCount, _content, false);\n/**+-I will explain this function:_\n\n1-First, we create the function with the function keyword, and give it a name createTask()\n2-We allow the function to accept one argument called \"_content\", which will be the text for the task. \nWe specify that this argument will be of \"string\" data type, and that it will persist in \"memory\".\n3-We set the function visibility to \"public\" so that it can be called outside of the smart contract, like in the console,\n or from the client side for example.\n4-Inside the function, we create an \"id\" for the new task. We simply take the existing taskCount and increment it by 1.\n5-Now we create a new task \"Document\" based on the \"struct\" by calling Task(taskCount, _content, false); and passing in the values for the new task.\n6-Next, we store the new task on the Blockchain by adding it to the tasks mapping like this: task[taskCount] = ..... .*/\n    emit TaskCreated(taskCount, _content, false);\n  }\n\n  function toggleCompleted(uint _id) public {\n    Task memory _task = tasks[_id];\n    _task.completed = !_task.completed;\n    tasks[_id] = _task;\n    emit TaskCompleted(_id, _task.completed);\n  }\n\n}",
  "sourcePath": "C:/Users/Public/Documents/Personal-Programming-Proyects/My-First-Blockchain-App/contracts/ToDoList.sol",
  "compiler": {
    "name": "solc",
    "version": "0.5.16+commit.9c3226ce.Emscripten.clang"
  },
  "schemaVersion": "3.3.3",
  "updatedAt": "2021-01-11T19:53:07.368Z",
  "networkType": "ethereum",
  "devdoc": {
    "methods": {}
  },
  "userdoc": {
    "methods": {},
    "notice": "+-VER LOS COMÁNDOS BÁSICOS DE TRUFFLE EN:_ https://www.trufflesuite.com/docs/truffle/reference/truffle-commands ."
  }
}